:100000000C945E000C9486000C9486000C94860080
:100010000C9486000C9486000C9486000C94860048
:100020000C9486000C9486000C9486000C94270A8D
:100030000C9486000C9486000C9486000C94860028
:100040000C9417050C9486000C947D080C94C00841
:100050000C9486000C9486000C9486000C94860008
:100060000C9486000C94860000000007000201003A
:100070000003040600000000000000000102040864
:100080001020408001020408102001020408102002
:10009000040404040404040402020202020203032E
:1000A0000303030300000000250028002B000000CC
:1000B0000000240027002A000E01D10911241FBED0
:1000C000CFEFD8E0DEBFCDBF11E0A0E0B1E0E6E3C6
:1000D000FFE102C005900D92A833B107D9F722E0E5
:1000E000A8E3B1E001C01D92A733B207E1F710E029
:1000F000CCEBD0E004C02297FE010E94860FC83BE3
:10010000D107C9F70E94DE070C94FA0C0C9400008A
:1001100062E070E08FE491E00E947D0B67E070E0A8
:100120008CE491E00E947D0B64E070E08BE591E04F
:100130000E947D0B65E070E088E591E00E947D0BF8
:1001400066E070E083E491E00E947D0B63E070E084
:1001500080E491E00E947D0B61E170E085E591E033
:100160000E947D0B6BE070E082E591E00E947D0BC8
:1001700060E170E089E491E00E947D0B6CE070E04A
:1001800086E491E00E947D0B6AE570E083E491E0F3
:100190000E94B60B68E770E080E491E00E94B60B25
:1001A0006AE570E08FE491E00E94B60B6AE570E0CA
:1001B0008CE491E00E94B60B6AE570E089E491E07E
:1001C0000E94B60B6AE570E086E491E00E94B60BEF
:1001D0006CE370E08BE591E00E94B60B6BE470E09D
:1001E00088E591E00E94B60B68E770E085E591E054
:1001F0000E94B60B69E670E082E591E00E94B60BC2
:1002000040E855E260E070E087E691E00E94FB087C
:1002100062E370E080E090E00C9484058BE591E06F
:100220000E94E30A88E591E00E94E30A85E591E0F7
:100230000E94E30A82E591E00E94E30A8FE491E0E4
:100240000E94E30A8CE491E00E94E30A89E491E0D1
:100250000E94E30A86E491E00E94E30A83E491E0CD
:100260000E94E30A80E491E00C94E30ACF92DF92CB
:10027000EF92FF920F931F93CF93DF9300E510E06F
:100280006BE4E62EF12CC4EBD0E087E691E00E940F
:10029000EB07181619060CF0C1C310923801109222
:1002A000390110923A0110923B0122E030E040E027
:1002B00050E0BA0187E691E00E94CC0787E691E022
:1002C0000E94340887E691E00E941408809304019C
:1002D00087E691E00E947C0940E855E260E070E02A
:1002E00087E691E00E94FB0820910401332727FD57
:1002F00030952A563109C901880F991F820F931F23
:1003000090933F0180933E0190933D0180933C0187
:10031000C0900501D0900601B601882777FD809531
:10032000982F0E94010E60930D0170930E0180932F
:100330000F0190931001B601660F771F660F771FAC
:10034000882777FD8095982F0E94010E20E030E0ED
:1003500044EB52E40E94660D6093090170930A0118
:1003600080930B0190930C0160910701709108013B
:10037000882777FD8095982F0E94840563E770E0B9
:100380008FE491E00E94B60B60E570E086E491E0B6
:100390000E94B60B64E670E08CE491E00E94B60B1C
:1003A0006CE370E089E491E00E94B60BF0921401D6
:1003B000E09213018CE390E0909318018093170171
:1003C0006091170170911801693771050CF0AAC08E
:1003D000CE01861B970B9093160180931501809197
:1003E0001301909114019E01281B390B30931201C7
:1003F000209311018BE591E00E94B60B60911501ED
:100400007091160185E591E00E94B60B6091130191
:100410007091140188E591E00E94B60B6091110182
:100420007091120182E591E00E94B60B20910901C2
:1004300030910A0140910B0150910C0160910D0126
:1004400070910E0180910F01909110010E94FD0C9E
:100450009B01AC0160930D0170930E0180930F011D
:100460009093100160E070E084EB92E40E94FD0C38
:100470000E94CE0D80E491E00E94B60B80913E0177
:1004800090913F01B801681B790B882777FD809513
:10049000982F0E94010E20910D0130910E01409184
:1004A0000F01509110010E94FD0C0E94CE0D83E4BB
:1004B00091E00E94B60B8091130190911401019676
:1004C00090931401809313016091070170910801CA
:1004D000882777FD8095982F0E94840520E030E0E2
:1004E00040E850E4609138017091390180913A01FF
:1004F00090913B010E94FE0CAB01BC01409338017E
:100500005093390160933A0170933B0122E030E04F
:1005100087E691E00E94CC07809117019091180125
:1005200002964ACF6BE470E08FE491E00E94B60B34
:1005300060E570E086E491E00E94B60B64E670E04E
:100540008CE491E00E94B60B64E670E089E491E0EF
:100550000E94B60B60911701709118016936710500
:100560000CF4B4C0CE01861B970B909316018093B8
:10057000150180911301909114019E01281B390BE4
:1005800030931201209311018BE591E00E94B60B8C
:10059000609115017091160185E591E00E94B60BFE
:1005A000609113017091140188E591E00E94B60BEF
:1005B000609111017091120182E591E00E94B60BE9
:1005C00020910D0130910E0140910F0150911001C9
:1005D00060E070E084EB92E40E94FD0C0E94CE0D7E
:1005E00080E491E00E94B60B80913E0190913F0122
:1005F000B801681B790B882777FD8095982F0E949A
:10060000010E20910D0130910E0140910F0150918A
:1006100010010E94FD0C0E94CE0D83E491E00E9427
:10062000B60B2091090130910A0140910B015091C4
:100630000C0160910D0170910E0180910F0190915C
:1006400010010E94FD0C60930D0170930E018093C8
:100650000F01909310018091130190911401019664
:100660009093140180931301609107017091080128
:10067000882777FD8095982F0E94840520E030E040
:1006800040E450E4609138017091390180913A0161
:1006900090913B010E94FE0CAB01BC0140933801DC
:1006A0005093390160933A0170933B0122E030E0AE
:1006B00087E691E00E94CC07809117019091180184
:1006C0000197909318018093170144CF6BE470E079
:1006D0008FE491E00E94B60B68E770E086E491E059
:1006E0000E94B60B6CE370E08CE491E00E94B60BC4
:1006F00064E670E089E491E00E94B60B6091170116
:10070000709118016B3471050CF4B4C0CE01861BD6
:10071000970B90931601809315018091130190918E
:1007200014019E01281B390B3093120120931101F3
:100730008BE591E00E94B60B609115017091160156
:1007400085E591E00E94B60B609113017091140150
:1007500088E591E00E94B60B609111017091120141
:1007600082E591E00E94B60B20910D0130910E01BF
:1007700040910F015091100160E070E084EB92E431
:100780000E94FD0C0E94CE0D80E491E00E94B60B09
:1007900080913E0190913F01B801681B790B882739
:1007A00077FD8095982F0E94010E20910D013091C8
:1007B0000E0140910F01509110010E94FD0C0E940A
:1007C000CE0D83E491E00E94B60B20910901309197
:1007D0000A0140910B0150910C0160910D01709143
:1007E0000E0180910F01909110010E94FE0C609308
:1007F0000D0170930E0180930F0190931001809171
:1008000013019091140102979093140180931301A6
:100810006091070170910801882777FD8095982FD6
:100820000E94840520E030E040E850E46091380107
:100830007091390180913A0190913B010E94FE0C28
:10084000AB01BC01409338015093390160933A01E8
:1008500070933B0122E030E087E691E00E94CC07F4
:10086000809117019091180101979093180180933E
:10087000170144CF6BE470E08FE491E00E94B60B67
:1008800060E570E086E491E00E94B60B64E670E0FB
:100890008CE491E00E94B60B64E670E089E491E09C
:1008A0000E94B60B60911701709118016C337105AD
:1008B0000CF4EBCCCE01861B970B90931601809322
:1008C000150180911301909114019E01281B390B91
:1008D00030931201209311018BE591E00E94B60B39
:1008E000609115017091160185E591E00E94B60BAB
:1008F000609113017091140188E591E00E94B60B9C
:10090000609111017091120182E591E00E94B60B95
:1009100020910D0130910E0140910F015091100175
:1009200060E070E084EB92E40E94FD0C0E94CE0D2A
:1009300080E491E00E94B60B80913E0190913F01CE
:10094000B801681B790B882777FD8095982F0E9446
:10095000010E20910D0130910E0140910F01509137
:1009600010010E94FD0C0E94CE0D83E491E00E94D4
:10097000B60B2091090130910A0140910B01509171
:100980000C0160910D0170910E0180910F01909109
:1009900010010E94FE0C60930D0170930E01809374
:1009A0000F01909310016091070170910801882751
:1009B00077FD8095982F0E94840580911301909176
:1009C00014010196909314018093130120E030E00C
:1009D00040E850E4609138017091390180913A010A
:1009E00090913B010E94FE0CAB01BC014093380189
:1009F0005093390160933A0170933B0122E030E05B
:100A000087E691E00E94CC07809117019091180130
:100A10000197909318018093170144CFDF91CF91F4
:100A20001F910F91FF90EF90DF90CF9008951F924C
:100A30000F920FB60F9211242F933F938F939F9392
:100A4000AF93BF9380915F0190916001A09161018C
:100A5000B091620130915E0123E0230F2D3720F425
:100A60000196A11DB11D05C026E8230F0296A11D08
:100A7000B11D20935E0180935F0190936001A0936C
:100A80006101B09362018091630190916401A09132
:100A90006501B09166010196A11DB11D80936301AE
:100AA00090936401A0936501B0936601BF91AF91EB
:100AB0009F918F913F912F910F900FBE0F901F909C
:100AC00018953FB7F8948091630190916401A091CB
:100AD0006501B091660126B5A89B05C02F3F19F0AE
:100AE0000196A11DB11D3FBF6627782F892F9A2F30
:100AF000620F711D811D911D42E0660F771F881FD7
:100B0000991F4A95D1F70895CF92DF92EF92FF9205
:100B1000CF93DF936B017C010E946105EB01C1144F
:100B2000D104E104F10479F00E9461056C1B7D0B96
:100B3000683E7340A0F381E0C81AD108E108F108CB
:100B4000C851DC4FECCFDF91CF91FF90EF90DF9059
:100B5000CF900895789484B5826084BD84B5816017
:100B600084BD85B5826085BD85B5816085BDEEE6B5
:100B7000F0E0808181608083E1E8F0E01082808194
:100B800082608083808181608083E0E8F0E0808102
:100B900081608083E1EBF0E0808184608083E0EB22
:100BA000F0E0808181608083EAE7F0E0808184600A
:100BB0008083808182608083808181608083808166
:100BC000806880831092C1000895CF92DF92EF92E7
:100BD000FF920F931F93CF93DF936C017A01EB0188
:100BE000E60EF71E00E010E0CE15DF0561F069911A
:100BF000D601ED91FC910190F081E02DC60109959F
:100C0000080F191FF1CFC801DF91CF911F910F91EC
:100C1000FF90EF90DF90CF9008956115710581F0FE
:100C2000DB010D900020E9F7AD0141505109461B51
:100C3000570BDC01ED91FC910280F381E02D0994CA
:100C400080E090E00895DC01ED91FC910190F0814D
:100C5000E02D09940F931F93CF93DF93EC016DE088
:100C60000E9423068C016AE0CE010E942306800FB9
:100C7000911FDF91CF911F910F9108958F929F92B5
:100C8000AF92BF92CF92DF92EF92FF920F931F939A
:100C9000CF93DF93CDB7DEB7A1970FB6F894DEBF41
:100CA0000FBECDBF7C01C42EE52FCB01D22E19A2E1
:100CB00021E02D1510F02AE0D22E8E010F5D1F4F7E
:100CC0008D2C912CA12CB12C6C2D7E2FA501940183
:100CD0000E94380F8C2DD29E8019112401501109C9
:100CE0008A3014F4805D01C0895CF801808321158D
:100CF00031054105510521F0C22EE32FCA01E4CF91
:100D0000B801C7010E940D06A1960FB6F894DEBF88
:100D10000FBECDBFDF91CF911F910F91FF90EF904C
:100D2000DF90CF90BF90AF909F908F900895CF921B
:100D3000DF92EF92FF920F931F93CF93DF93EC011B
:100D40006A017B012115310579F4E881F98101906F
:100D5000F081E02D642FDF91CF911F910F91FF90D3
:100D6000EF90DF90CF9009942A303105E9F477FFB6
:100D70001AC06DE20E9423068C0144275527BA0150
:100D80004C195D096E097F092AE0CE010E943E06DA
:100D9000800F911FDF91CF911F910F91FF90EF90E6
:100DA000DF90CF9008952AE0B701A601CE01DF9130
:100DB000CF911F910F91FF90EF90DF90CF900C9407
:100DC0003E064F925F926F927F928F929F92AF9268
:100DD000BF92CF92DF92EF92FF920F931F93CF9328
:100DE000DF93EC016A017B01B22E9A01AB01C701CE
:100DF000B6010E94180F882319F069E171E027C03D
:100E000026013701E89477F82FEF3FEF4FE75FE7D0
:100E1000C301B2010E94180F81110DC02FEF3FEFE7
:100E20004FE75FE7C301B2010E94620D18161CF480
:100E30006DE171E00CC02FEF3FEF4FE75FE4C701BA
:100E4000B6010E94B10E1816ACF461E271E0CE0159
:100E5000DF91CF911F910F91FF90EF90DF90CF9096
:100E6000BF90AF909F908F907F906F905F904F90CA
:100E70000C940D062FEF3FEF4FE75FECC701B60173
:100E80000E94620D87FDE1CF20E030E0A901C7019B
:100E9000B6010E94620D87FF0AC06DE2CE010E947A
:100EA00023068C01F7FAF094F7F8F09402C000E002
:100EB00010E0A12C60E070E080E09FE3AB1441F013
:100EC00020E030E040E251E40E94660DA394F6CFAA
:100ED0009B01AC01C701B6010E94FE0C6B017C01B5
:100EE0000E94D30D2B013C010E94FF0D9B01AC0120
:100EF000C701B6010E94FD0C6B017C012AE0B30121
:100F0000A201CE010E943E06080F191FBB2039F036
:100F100065E271E0CE010E940D06080F191F7B2CBF
:100F2000772041F120E030E040E251E4C701B60112
:100F30000E94B50E6B017C010E94CE0D4B01AA24CC
:100F400097FCA094BA2C2AE030E0B501A401CE01B0
:100F50000E949706080F191FC501B4010E94010ED7
:100F60009B01AC01C701B6010E94FD0C6B017C0125
:100F70007A94D6CFC801DF91CF911F910F91FF9046
:100F8000EF90DF90CF90BF90AF909F908F907F9029
:100F90006F905F904F9008950F931F93CF93DF93BF
:100FA000EC010E94E1068C01CE010E942A06800F0E
:100FB000911FDF91CF911F910F9108950E94AA0573
:100FC0000E948800C7EBD8E00E9436012097E1F329
:100FD0000E94B708F9CFFC0124853585F901E05C52
:100FE000FF4F80819181329620813181821B930B4A
:100FF0008F7399270895FC0184859585FC01E05C39
:10100000FF4F408151813296208131814217530731
:1010100041F00190F081E02DE80FF91F808190E010
:1010200008958FEF9FEF0895FC0184859585FC015D
:10103000E05CFF4F4081518132962081318142171F
:10104000530779F0A081B181A80FB91F8C9120813D
:1010500031812F5F3F4F2F7333273183208390E0FF
:1010600008958FEF9FEF0895FC0181A1882329F057
:10107000A489B5898C9186FFFBCF11A20895CF93E7
:10108000DF93FC0126853785D901A05CBF4F8D9188
:101090009C91119701968F739927E901CE5BDF4FE1
:1010A0004881598184179507D9F30D90BC91A02DE3
:1010B000A20FB31F6C93A685B785A05CBF4F119696
:1010C0009C938E93A689B7892C9181E090E0078C40
:1010D00002C0880F991F0A94E2F7282B2C9381E015
:1010E00081A30488F589E02D80818064808381E07C
:1010F00090E0DF91CF91089508951F920F920FB65F
:101100000F9211242F933F934F938F939F93EF93BD
:10111000FF938091C00082FD1CC04091C600809169
:101120000D0290910E0201968F73992720910F0264
:10113000309110028217930771F0E0910D02F09147
:101140000E02E353FE4F408390930E0280930D02F4
:1011500002C08091C600FF91EF919F918F914F91B6
:101160003F912F910F900FBE0F901F90189587E61B
:1011700091E00E94EB07892B11F00C947C080895F4
:101180001F920F920FB60F9211242F933F938F93BC
:101190009F93EF93FF932091C9013091CA018091F1
:1011A000CB019091CC012817390731F48091C1000F
:1011B0008F7D8093C10014C0E091CB01F091CC01F0
:1011C000E757FE4F20818091CB019091CC01019691
:1011D0008F7399279093CC018093CB012093C60005
:1011E000FF91EF919F918F913F912F910F900FBEA3
:1011F0000F901F901895CF92DF92EF92FF92CF93AE
:10120000DF93EC016A017B01411581EE580761050E
:101210007105F9F0EC89FD8981E090E008A002C039
:10122000880F991F0A94E2F7808360E079E08DE3EC
:1012300090E0A70196010E94380F21503109410921
:1012400051095695479537952795211580E138071F
:1012500098F0EC89FD89108260E874E88EE190E0F6
:10126000A70196010E94380F215031094109510907
:101270005695479537952795E889F9893083EA8906
:10128000FB89208319A2EE89FF89408181E090E0EB
:101290009C010C8C02C0220F331F0A94E2F7422BF0
:1012A0004083EE89FF8940819C010D8C02C0220F92
:1012B000331F0A94E2F7422B4083EE89FF89408175
:1012C0009C010E8C02C0220F331F0A94E2F7422BBE
:1012D0004083EE89FF8920810F8C02C0880F991FFF
:1012E0000A94E2F7809582238083DF91CF91FF906B
:1012F000EF90DF90CF900895CF93DF93FC01868528
:101300009785DC01A05CBF4FEC01CE5BDF4F4D91B8
:101310005C9111972881398142175307C1F7A6893B
:10132000B7894C9181E090E09C01048C02C0220FAF
:10133000331F0A94E2F7209524232C93A689B789BA
:101340004C919C01058C02C0220F331F0A94E2F7D6
:10135000209524232C93A689B7894C919C01068C57
:1013600002C0220F331F0A94E2F7209524232C9306
:10137000A689B7892C91078C02C0880F991F0A94FF
:10138000E2F7809582238C9384859585FC01EE5B42
:10139000FF4F20813181329731832083DF91CF91BC
:1013A000089510926A011092690188EE93E0A0E01E
:1013B000B0E080936B0190936C01A0936D01B093AA
:1013C0006E018BE291E090936801809367018DEC50
:1013D00091E0909374018093730189E891E0909378
:1013E00076018093750185EC90E09093780180936D
:1013F000770184EC90E090937A018093790180ECFE
:1014000090E090937C0180937B0181EC90E090933D
:101410007E0180937D0182EC90E090938001809327
:101420007F0186EC90E0909382018093810184E0BB
:101430008093830183E08093840187E0809385011A
:1014400085E08093860181E08093870108951F9253
:101450000F920FB60F9211242F933F934F935F93E8
:101460006F937F938F939F93AF93BF93EF93FF936C
:101470008091120287FF05C01092850010928400AF
:101480001AC020911202332727FD30958091110256
:1014900090E0281739077CF480911202992787FD84
:1014A0009095FC01EE0FFF1FE80FF91FED5EFD4F59
:1014B000808186FD15C0809112028F5F8093120299
:1014C00020911202332727FD30958091110290E080
:1014D00028173907BCF4809112028C305CF112C0DD
:1014E00080911202992787FD9095FC01EE0FFF1F56
:1014F000E80FF91FED5EFD4F808160E08F730E9461
:101500007D0CD9CF80918400909185000496803421
:101510009C4918F480E49CE905C080918400909176
:101520008500049690938900809388008FEF8093C4
:10153000120238C08091840090918500209112029F
:10154000332727FD3095F901EE0FFF1FE20FF31F40
:10155000ED5EFD4F21813281820F931F90938900B0
:101560008093880080911202992787FD9095FC0155
:10157000EE0FFF1FE80FF91FED5EFD4F808186FF24
:1015800011C080911202992787FD9095FC01EE0F02
:10159000FF1FE80FF91FED5EFD4F808161E08F7343
:1015A0000E947D0CFF91EF91BF91AF919F918F9120
:1015B0007F916F915F914F913F912F910F900FBE4F
:1015C0000F901F901895209111022C30A0F431E05B
:1015D000320F30931102FC012083822F90E0FC0136
:1015E000EE0FFF1FE80FF91FED5EFD4F88EB9BE04C
:1015F0009283818308952FEFFC0120830895DF9269
:10160000EF92FF920F931F93CF93DF93EC01D62EAF
:101610007A01890188818C3008F066C061E08D2DE7
:101620000E94440C8881A82FB0E0FD01EE0FFF1F3F
:10163000EA0FFB1FED5EFD4F2D2D2F739081907CE7
:10164000922B908360E272E06E197F0977FF02C0EF
:101650006D5F7F4F7595679575956795698340E6D2
:1016600059E0401B510B57FF02C04D5F5F4F55952E
:101670004795559547954A836CE00E942C0F9CE056
:10168000899FB001112420E030E0A901460F571FC7
:10169000FA01EE0FFF1FE40FF51FED5EFD4F908185
:1016A00096FD16C02F5F3F4F2C30310571F7811129
:1016B0000FC01092800082E080938100109285001C
:1016C00010928400B19A80916F00826080936F00C5
:1016D000888190E0FC01EE0FFF1FE80FF91FED5E1F
:1016E000FD4F8081806480838881DF91CF911F913D
:1016F0000F91FF90EF90DF90089520E639E040E2EF
:1017000052E00C94FF0AFC0180818C3070F59181CD
:1017100028E830E0291B310997FD3395220F331F4C
:10172000220F331F621773077CF0928128E532E0A5
:10173000291B310997FD3395220F331F220F331FC9
:10174000621773070CF49B014FB7F89490E0FC010B
:10175000EE0FFF1FE80FF91FED5EFD4F225031091C
:10176000220F331F328321834FBF08954F925F9220
:101770006F927F92AF92BF92CF92DF92EF92FF92E1
:101780000F931F93CF93DF93EC01603282E07807D1
:101790000CF040C077FD06C0653B71052CF064EB92
:1017A00070E002C060E070E0898128E830E0281B2A
:1017B000310987FD3395220F331F220F331F590143
:1017C000CC24B7FCC094DC2C882777FD8095982F1B
:1017D0002A8148E552E0421B510927FD5395440FE9
:1017E000551F440F551F2A01662457FC6094762C20
:1017F0007F926F925F924F9214EBE12EF12C00E0FA
:1018000010E020E030E0A9010E94B30C0F900F908F
:101810000F900F90CE01DF91CF911F910F91FF900C
:10182000EF90DF90CF90BF90AF907F906F905F90E0
:101830004F900C94830B833081F028F4813099F021
:101840008230A1F008958630A9F08730B9F0843055
:10185000D1F4809180008F7D03C0809180008F77CC
:1018600080938000089584B58F7702C084B58F7D02
:1018700084BD08958091B0008F7703C08091B0003F
:101880008F7D8093B0000895CF93DF9390E0FC01AB
:10189000E458FF4F2491FC01E057FF4F84918823C7
:1018A00049F190E0880F991FFC01E255FF4FA59187
:1018B000B4918C559F4FFC01C591D4919FB7611194
:1018C00008C0F8948C91209582238C938881822380
:1018D0000AC0623051F4F8948C91322F30958323F2
:1018E0008C938881822B888304C0F8948C91822BFE
:1018F0008C939FBFDF91CF9108950F931F93CF9348
:10190000DF931F92CDB7DEB7282F30E0F901E859F9
:10191000FF4F8491F901E458FF4F1491F901E0570A
:10192000FF4F04910023C9F0882321F069830E94AE
:101930001B0C6981E02FF0E0EE0FFF1FEC55FF4F0D
:10194000A591B4919FB7F8948C91611103C0109543
:10195000812301C0812B8C939FBF0F90DF91CF918A
:101960001F910F9108954F925F926F927F92AF9265
:10197000BF92CF92DF92EF92FF920F931F93CF937C
:10198000DF93CDB7DEB729013A01621B730B840BDD
:10199000950B29893A894B895C892A193B094C099D
:1019A0005D09298B3A8B4B8B5C8B9B01AC01698960
:1019B0007A898B899C890E941C0FE418F508060916
:1019C0001709A80197010E945A0F2A0D3B1D4C1DB3
:1019D0005D1DCA01B901DF91CF911F910F91FF9059
:1019E000EF90DF90CF90BF90AF907F906F905F901F
:1019F0004F900895F8940C94990F5058BB27AA273C
:101A00000ED075C166D130F06BD120F031F49F3F1C
:101A100011F41EF45BC10EF4E095E7FB51C1E92F10
:101A200077D180F3BA17620773078407950718F018
:101A300071F49EF58FC10EF4E0950B2EBA2FA02DF8
:101A40000B01B90190010C01CA01A0011124FF276B
:101A5000591B99F0593F50F4503E68F11A16F04066
:101A6000A22F232F342F4427585FF3CF4695379565
:101A70002795A795F0405395C9F77EF41F16BA0B2A
:101A8000620B730B840BBAF09150A1F0FF0FBB1FD8
:101A9000661F771F881FC2F70EC0BA0F621F731F21
:101AA000841F48F4879577956795B795F7959E3F7E
:101AB00008F0B3CF9395880F08F09927EE0F97950C
:101AC00087950895D9D008F481E008950CD00FC10E
:101AD00007D140F0FED030F021F45F3F19F0F0C0A4
:101AE000511139C1F3C014D198F39923C9F3552387
:101AF000B1F3951B550BBB27AA2762177307840701
:101B000038F09F5F5F4F220F331F441FAA1FA9F3B6
:101B100033D00E2E3AF0E0E830D091505040E695A8
:101B2000001CCAF729D0FE2F27D0660F771F881F09
:101B3000BB1F261737074807AB07B0E809F0BB0BF8
:101B4000802DBF01FF2793585F4F2AF09E3F51051C
:101B500068F0B6C000C15F3FECF3983EDCF38695B9
:101B600077956795B795F7959F5FC9F7880F911D92
:101B70009695879597F90895E1E0660F771F881F7E
:101B8000BB1F621773078407BA0720F0621B730B31
:101B9000840BBA0BEE1F88F7E095089504D0689483
:101BA000B111D9C00895BCD088F09F5790F0B92FDB
:101BB0009927B751A0F0D1F0660F771F881F991FA2
:101BC0001AF0BA95C9F712C0B13081F0C3D0B1E0B4
:101BD0000895C0C0672F782F8827B85F39F0B93FC4
:101BE000CCF3869577956795B395D9F73EF49095A4
:101BF0008095709561957F4F8F4F9F4F0895E89422
:101C000009C097FB3EF490958095709561957F4F44
:101C10008F4F9F4F9923A9F0F92F96E9BB279395F2
:101C2000F695879577956795B795F111F8CFFAF402
:101C3000BB0F11F460FF1BC06F5F7F4F8F4F9F4F33
:101C400016C0882311F096E911C0772321F09EE891
:101C5000872F762F05C0662371F096E8862F70E0F7
:101C600060E02AF09A95660F771F881FDAF7880FD1
:101C70009695879597F90895990F0008550FAA0B27
:101C8000E0E8FEEF16161706E807F907C0F012168F
:101C90001306E407F50798F0621B730B840B950B92
:101CA00039F40A2661F0232B242B252B21F40895E7
:101CB0000A2609F4A140A6958FEF811D811D089584
:101CC00097F99F6780E870E060E008959FEF80ECEF
:101CD000089500240A941616170618060906089592
:101CE00000240A9412161306140605060895092EF8
:101CF0000394000C11F4882352F0BB0F40F4BF2B67
:101D000011F460FF04C06F5F7F4F8F4F9F4F0895A6
:101D100057FD9058440F551F59F05F3F71F047959C
:101D2000880F97FB991F61F09F3F79F08795089581
:101D3000121613061406551FF2CF4695F1DF08C0A0
:101D4000161617061806991FF1CF869571056105BD
:101D500008940895E894BB2766277727CB0197F965
:101D600008958ADF08F48FEF08950BD0C0CFB1DF5C
:101D700028F0B6DF18F0952309F0A2CFA7CF1124E1
:101D8000EACFC6DFA0F3959FD1F3950F50E0551F22
:101D9000629FF001729FBB27F00DB11D639FAA27C0
:101DA000F00DB11DAA1F649F6627B00DA11D661F0F
:101DB000829F2227B00DA11D621F739FB00DA11D30
:101DC000621F839FA00D611D221F749F3327A00DEA
:101DD000611D231F849F600D211D822F762F6A2F86
:101DE00011249F5750408AF0E1F088234AF0EE0F0B
:101DF000FF1FBB1F661F771F881F91505040A9F718
:101E00009E3F510570F05CCFA6CF5F3FECF3983E4C
:101E1000DCF3869577956795B795F795E7959F5F7E
:101E2000C1F7FE2B880F911D9695879597F9089518
:101E300023DF880B990B0895DB018F939F930E94FA
:101E4000790FBF91AF91A29F800D911DA39F900D1F
:101E5000B29F900D11240895991B79E004C0991F39
:101E6000961708F0961B881F7A95C9F780950895F4
:101E7000A1E21A2EAA1BBB1BFD010DC0AA1FBB1F8E
:101E8000EE1FFF1FA217B307E407F50720F0A21B00
:101E9000B30BE40BF50B661F771F881F991F1A946D
:101EA00069F760957095809590959B01AC01BD0197
:101EB000CF010895052E97FB1EF400940E94710F28
:101EC00057FD07D00E94380F07FC03D04EF40C9446
:101ED000710F50954095309521953F4F4F4F5F4F73
:101EE000089590958095709561957F4F8F4F9F4F86
:101EF00008950E948A0FA59F900DB49F900DA49FF6
:101F0000800D911D11240895EE0FFF1F0590F4918F
:101F1000E02D0994A29FB001B39FC001A39F700D53
:101F2000811D1124911DB29F700D811D1124911DE1
:061F30000895F894FFCFB4
:101F360001000000791E001E00CDCCCC3D000070D3
:101F4600415A0078005A0078006E616E00696E662C
:101F5600006F7666002E00000000003F08E505EBE6
:081F6600071408FB0734080012
:00000001FF
