:100000000C9435000C945D000C945D000C945D0024
:100010000C945D000C945D000C945D000C945D00EC
:100020000C945D000C945D000C945D000C945D00DC
:100030000C945D000C945D000C945D000C945D00CC
:100040000C94D1000C945D000C9454040C9497040F
:100050000C945D000C945D000C945D000C945D00AC
:100060000C945D000C945D00530511241FBECFEF6E
:10007000D8E0DEBFCDBF11E0A0E0B1E0EAEEFFE0E6
:1000800002C005900D92A432B107D9F721E0A4E295
:10009000B1E001C01D92A13EB207E1F710E0CAE64F
:1000A000D0E004C02297FE010E94EF07C836D107B6
:1000B000C9F70E94B5030C94A9050C94000040E810
:1000C00055E260E070E087E391E00C94D204CF92B7
:1000D000DF92EF92FF928EE00E949F0190932D019C
:1000E00080932C01BC01882777FD8095982F0E9472
:1000F000B00620E030E040E85AE30E94640720E0C8
:1001000030E44CE955E40E9464076B017C01609384
:1001100028017093290180932A0190932B0160910B
:10012000000170910101882777FD8095982F0E942A
:10013000B0069B01AC01C701B6010E94AC056B0182
:100140007C016091020170910301882777FD809501
:10015000982F0E94B0069B01AC01C701B6010E9416
:10016000150620E030E04AE754E40E946407AB0142
:10017000BC014093240150932501609326017093A4
:10018000270123E030E087E391E00E94A3036AE0C7
:1001900070E080E090E0FF90EF90DF90CF900C94C3
:1001A0003E011F920F920FB60F9211242F933F938F
:1001B0008F939F93AF93BF9380912F0190913001C4
:1001C000A0913101B091320130912E0123E0230F33
:1001D0002D3720F40196A11DB11D05C026E8230F7F
:1001E0000296A11DB11D20932E0180932F019093A3
:1001F0003001A0933101B09332018091330190918D
:100200003401A0913501B09136010196A11DB11DB7
:100210008093330190933401A0933501B09336015C
:10022000BF91AF919F918F913F912F910F900FBEF2
:100230000F901F9018953FB7F894809133019091DB
:100240003401A0913501B091360126B5A89B05C0B7
:100250002F3F19F00196A11DB11D3FBF6627782FD2
:10026000892F9A2F620F711D811D911D42E0660F2B
:10027000771F881F991F4A95D1F70895CF92DF9273
:10028000EF92FF92CF93DF936B017C010E941B01E1
:10029000EB01C114D104E104F10479F00E941B01C7
:1002A0006C1B7D0B683E7340A0F381E0C81AD10837
:1002B000E108F108C851DC4FECCFDF91CF91FF90FE
:1002C000EF90DF90CF900895789484B5826084BDDC
:1002D00084B5816084BD85B5826085BD85B581604A
:1002E00085BDEEE6F0E0808181608083E1E8F0E0AA
:1002F0001082808182608083808181608083E0E8D9
:10030000F0E0808181608083E1EBF0E080818460B7
:100310008083E0EBF0E0808181608083EAE7F0E0B9
:10032000808184608083808182608083808181601D
:1003300080838081806880831092C10008958E3010
:1003400008F08E5087702091040190E4299F90015D
:100350001124822B80937C0080917A0080648093AA
:100360007A0080917A0086FDFCCF80917800209100
:10037000790090E0922B0895CF92DF92EF92FF9256
:100380000F931F93CF93DF936C017A01EB01E60E7D
:10039000F71E00E010E0CE15DF0561F06991D6018F
:1003A000ED91FC910190F081E02DC6010995080FB7
:1003B000191FF1CFC801DF91CF911F910F91FF90CD
:1003C000EF90DF90CF9008956115710581F0DB010A
:1003D0000D900020E9F7AD0141505109461B570B24
:1003E000DC01ED91FC910280F381E02D099480E025
:1003F00090E00895DC01ED91FC910190F081E02DF9
:1004000009940F931F93CF93DF93EC016DE00E944B
:10041000FA018C016AE0CE010E94FA01800F911F5F
:10042000DF91CF911F910F9108958F929F92AF927C
:10043000BF92CF92DF92EF92FF920F931F93CF93D1
:10044000DF93CDB7DEB7A1970FB6F894DEBF0FBE2E
:10045000CDBF7C01C42EE52FCB01D22E19A221E005
:100460002D1510F02AE0D22E8E010F5D1F4F8D2C1E
:10047000912CA12CB12C6C2D7E2FA50194010E94F2
:10048000CB078C2DD29E80191124015011098A307E
:1004900014F4805D01C0895CF80180832115310569
:1004A0004105510521F0C22EE32FCA01E4CFB80166
:1004B000C7010E94E401A1960FB6F894DEBF0FBEFB
:1004C000CDBFDF91CF911F910F91FF90EF90DF9003
:1004D000CF90BF90AF909F908F900895CF92DF9272
:1004E000EF92FF920F931F93CF93DF93EC016A017A
:1004F0007B012115310579F4E881F9810190F081C2
:10050000E02D642FDF91CF911F910F91FF90EF901D
:10051000DF90CF9009942A303105E9F477FF1AC0B3
:100520006DE20E94FA018C0144275527BA014C194B
:100530005D096E097F092AE0CE010E941502800F35
:10054000911FDF91CF911F910F91FF90EF90DF905E
:10055000CF9008952AE0B701A601CE01DF91CF9197
:100560001F910F91FF90EF90DF90CF900C941502A8
:100570004F925F926F927F928F929F92AF92BF92B3
:10058000CF92DF92EF92FF920F931F93CF93DF935F
:10059000EC016A017B01B22E9A01AB01C701B601E1
:1005A0000E94C707882319F065E071E027C0260183
:1005B0003701E89477F82FEF3FEF4FE75FE7C3018C
:1005C000B2010E94C70781110DC02FEF3FEF4FE727
:1005D0005FE7C301B2010E94110618161CF469E01E
:1005E00071E00CC02FEF3FEF4FE75FE4C701B601AA
:1005F0000E9460071816ACF46DE071E0CE01DF9147
:10060000CF911F910F91FF90EF90DF90CF90BF900F
:10061000AF909F908F907F906F905F904F900C94D1
:10062000E4012FEF3FEF4FE75FECC701B6010E94F7
:10063000110687FDE1CF20E030E0A901C701B60136
:100640000E94110687FF0AC06DE2CE010E94FA01E6
:100650008C01F7FAF094F7F8F09402C000E010E093
:10066000A12C60E070E080E09FE3AB1441F020E05B
:1006700030E040E251E40E941506A394F6CF9B01BE
:10068000AC01C701B6010E94AD056B017C010E945F
:1006900082062B013C010E94AE069B01AC01C70102
:1006A000B6010E94AC056B017C012AE0B301A201F6
:1006B000CE010E941502080F191FBB2039F061E11D
:1006C00071E0CE010E94E401080F191F7B2C7720F6
:1006D00041F120E030E040E251E4C701B6010E9460
:1006E00064076B017C010E947D064B01AA2497FCE4
:1006F000A094BA2C2AE030E0B501A401CE010E94FA
:100700006E02080F191FC501B4010E94B0069B01BB
:10071000AC01C701B6010E94AC056B017C017A9463
:10072000D6CFC801DF91CF911F910F91FF90EF902D
:10073000DF90CF90BF90AF909F908F907F906F9001
:100740005F904F9008950F931F93CF93DF93EC0129
:100750000E94B8028C01CE010E940102800F911FFD
:10076000DF91CF911F910F9108950E9464010E9423
:100770005F00CEE8D4E00E9467002097E1F30E947A
:100780008E04F9CFFC0124853585F901E05CFF4F2B
:1007900080819181329620813181821B930B8F73EE
:1007A00099270895FC0184859585FC01E05CFF4F45
:1007B000408151813296208131814217530741F0A7
:1007C0000190F081E02DE80FF91F808190E00895FD
:1007D0008FEF9FEF0895FC0184859585FC01E05C17
:1007E000FF4F40815181329620813181421753075A
:1007F00079F0A081B181A80FB91F8C91208131813E
:100800002F5F3F4F2F7333273183208390E008956C
:100810008FEF9FEF0895FC0181A1882329F0A4891F
:10082000B5898C9186FFFBCF11A20895CF93DF93FA
:10083000FC0126853785D901A05CBF4F8D919C9125
:10084000119701968F739927E901CE5BDF4F48819D
:10085000598184179507D9F30D90BC91A02DA20F53
:10086000B31F6C93A685B785A05CBF4F11969C9370
:100870008E93A689B7892C9181E090E0078C02C005
:10088000880F991F0A94E2F7282B2C9381E081A30B
:100890000488F589E02D80818064808381E090E088
:1008A000DF91CF91089508951F920F920FB60F9286
:1008B00011242F933F934F938F939F93EF93FF9325
:1008C0008091C00082FD1CC04091C6008091DD0176
:1008D0009091DE0101968F7399272091DF0130916D
:1008E000E0018217930771F0E091DD01F091DE01E4
:1008F000E356FE4F40839093DE018093DD0102C0FA
:100900008091C600FF91EF919F918F914F913F9100
:100910002F910F900FBE0F901F90189587E391E0D5
:100920000E94C203892B11F00C94530408951F9266
:100930000F920FB60F9211242F933F938F939F9393
:10094000EF93FF932091990130919A0180919B013F
:1009500090919C012817390731F48091C1008F7D57
:100960008093C10014C0E0919B01F0919C01E75A73
:10097000FE4F208180919B0190919C0101968F7385
:10098000992790939C0180939B012093C600FF912F
:10099000EF919F918F913F912F910F900FBE0F90EC
:1009A0001F901895CF92DF92EF92FF92CF93DF9333
:1009B000EC016A017B01411581EE58076105710563
:1009C000F9F0EC89FD8981E090E008A002C0880F71
:1009D000991F0A94E2F7808360E079E08DE390E06C
:1009E000A70196010E94CB07215031094109510905
:1009F0005695479537952795211580E1380798F04A
:100A0000EC89FD89108260E874E88EE190E0A7012E
:100A100096010E94CB072150310941095109569591
:100A2000479537952795E889F9893083EA89FB89C5
:100A3000208319A2EE89FF89408181E090E09C012A
:100A40000C8C02C0220F331F0A94E2F7422B408322
:100A5000EE89FF8940819C010D8C02C0220F331F5B
:100A60000A94E2F7422B4083EE89FF8940819C0182
:100A70000E8C02C0220F331F0A94E2F7422B4083F0
:100A8000EE89FF8920810F8C02C0880F991F0A947C
:100A9000E2F7809582238083DF91CF91FF90EF90E2
:100AA000DF90CF90089510923A011092390188EEAC
:100AB00093E0A0E0B0E080933B0190933C01A093D1
:100AC0003D01B0933E0187E191E09093380180931E
:100AD00037018DE991E0909344018093430189E5CA
:100AE00091E0909346018093450185EC90E09093CE
:100AF00048018093470184EC90E090934A018093F1
:100B0000490180EC90E090934C0180934B0181EC83
:100B100090E090934E0180934D0182EC90E0909391
:100B2000500180934F0186EC90E0909352018093A6
:100B3000510184E08093530183E08093540187E066
:100B40008093550185E08093560181E080935701A1
:100B50000895F8940C94F3075058BB27AA270ED099
:100B600075C166D130F06BD120F031F49F3F11F4A4
:100B70001EF45BC10EF4E095E7FB51C1E92F77D17C
:100B800080F3BA17620773078407950718F071F4AA
:100B90009EF58FC10EF4E0950B2EBA2FA02D0B0100
:100BA000B90190010C01CA01A0011124FF27591BB2
:100BB00099F0593F50F4503E68F11A16F040A22FB8
:100BC000232F342F4427585FF3CF46953795279529
:100BD000A795F0405395C9F77EF41F16BA0B620B28
:100BE000730B840BBAF09150A1F0FF0FBB1F661F6F
:100BF000771F881FC2F70EC0BA0F621F731F841FB2
:100C000048F4879577956795B795F7959E3F08F0D7
:100C1000B3CF9395880F08F09927EE0F9795879596
:100C20000895D9D008F481E008950CD00FC107D100
:100C300040F0FED030F021F45F3F19F0F0C05111C8
:100C400039C1F3C014D198F39923C9F35523B1F3F3
:100C5000951B550BBB27AA2762177307840738F02B
:100C60009F5F5F4F220F331F441FAA1FA9F333D08A
:100C70000E2E3AF0E0E830D091505040E695001C3E
:100C8000CAF729D0FE2F27D0660F771F881FBB1FFA
:100C9000261737074807AB07B0E809F0BB0B802DD4
:100CA000BF01FF2793585F4F2AF09E3F510568F020
:100CB000B6C000C15F3FECF3983EDCF386957795B4
:100CC0006795B795F7959F5FC9F7880F911D969522
:100CD000879597F90895E1E0660F771F881FBB1F7E
:100CE000621773078407BA0720F0621B730B840B2B
:100CF000BA0BEE1F88F7E095089504D06894B111FF
:100D0000D9C00895BCD088F09F5790F0B92F99278B
:100D1000B751A0F0D1F0660F771F881F991F1AF006
:100D2000BA95C9F712C0B13081F0C3D0B1E00895CF
:100D3000C0C0672F782F8827B85F39F0B93FCCF350
:100D4000869577956795B395D9F73EF490958095FC
:100D5000709561957F4F8F4F9F4F0895E89409C01C
:100D600097FB3EF490958095709561957F4F8F4FDE
:100D70009F4F9923A9F0F92F96E9BB279395F695F4
:100D8000879577956795B795F111F8CFFAF4BB0F72
:100D900011F460FF1BC06F5F7F4F8F4F9F4F16C0D6
:100DA000882311F096E911C0772321F09EE8872F60
:100DB000762F05C0662371F096E8862F70E060E01C
:100DC0002AF09A95660F771F881FDAF7880F969595
:100DD000879597F90895990F0008550FAA0BE0E839
:100DE000FEEF16161706E807F907C0F012161306ED
:100DF000E407F50798F0621B730B840B950B39F42D
:100E00000A2661F0232B242B252B21F408950A2692
:100E100009F4A140A6958FEF811D811D089597F9D2
:100E20009F6780E870E060E008959FEF80EC089590
:100E300000240A94161617061806090608950024B9
:100E40000A9412161306140605060895092E039433
:100E5000000C11F4882352F0BB0F40F4BF2B11F4A7
:100E600060FF04C06F5F7F4F8F4F9F4F089557FD06
:100E70009058440F551F59F05F3F71F04795880F08
:100E800097FB991F61F09F3F79F08795089512169F
:100E900013061406551FF2CF4695F1DF08C016164B
:100EA00017061806991FF1CF8695710561050894FC
:100EB0000895E894BB2766277727CB0197F9089513
:100EC0008ADF08F48FEF08950BD0C0CFB1DF28F090
:100ED000B6DF18F0952309F0A2CFA7CF1124EACFEF
:100EE000C6DFA0F3959FD1F3950F50E0551F629F89
:100EF000F001729FBB27F00DB11D639FAA27F00D73
:100F0000B11DAA1F649F6627B00DA11D661F829F99
:100F10002227B00DA11D621F739FB00DA11D621F7E
:100F2000839FA00D611D221F749F3327A00D611D9B
:100F3000231F849F600D211D822F762F6A2F11247D
:100F40009F5750408AF0E1F088234AF0EE0FFF1FD0
:100F5000BB1F661F771F881F91505040A9F79E3F07
:100F6000510570F05CCFA6CF5F3FECF3983EDCF309
:100F7000869577956795B795F795E7959F5FC1F744
:100F8000FE2B880F911D9695879597F9089523DF7D
:100F9000880B990B0895A1E21A2EAA1BBB1BFD0119
:100FA0000DC0AA1FBB1FEE1FFF1FA217B307E40748
:100FB000F50720F0A21BB30BE40BF50B661F771FA0
:100FC000881F991F1A9469F7609570958095909580
:100FD0009B01AC01BD01CF010895EE0FFF1F0590ED
:0A0FE000F491E02D0994F894FFCF7E
:100FEA00C4096400016E616E00696E66006F766600
:100FFA00002E00000000001604BC01C203EB03D25D
:04100A00030B0400D0
:00000001FF
